{
  "_format": "hh-sol-artifact-1",
  "contractName": "Admin",
  "sourceName": "contracts/Admin.sol",
  "abi": [
    {
      "inputs": [
        {
          "internalType": "address",
          "name": "initialOwner",
          "type": "address"
        },
        {
          "internalType": "string",
          "name": "initialCandidateName",
          "type": "string"
        },
        {
          "internalType": "address",
          "name": "initialCandidateAddress",
          "type": "address"
        }
      ],
      "stateMutability": "nonpayable",
      "type": "constructor"
    },
    {
      "inputs": [
        {
          "internalType": "address",
          "name": "owner",
          "type": "address"
        }
      ],
      "name": "OwnableInvalidOwner",
      "type": "error"
    },
    {
      "inputs": [
        {
          "internalType": "address",
          "name": "account",
          "type": "address"
        }
      ],
      "name": "OwnableUnauthorizedAccount",
      "type": "error"
    },
    {
      "anonymous": false,
      "inputs": [
        {
          "indexed": false,
          "internalType": "uint256",
          "name": "candidateId",
          "type": "uint256"
        },
        {
          "indexed": false,
          "internalType": "string",
          "name": "name",
          "type": "string"
        }
      ],
      "name": "CandidateAdded",
      "type": "event"
    },
    {
      "anonymous": false,
      "inputs": [
        {
          "indexed": false,
          "internalType": "uint256",
          "name": "candidateId",
          "type": "uint256"
        }
      ],
      "name": "CandidateDeactivated",
      "type": "event"
    },
    {
      "anonymous": false,
      "inputs": [
        {
          "indexed": true,
          "internalType": "address",
          "name": "previousOwner",
          "type": "address"
        },
        {
          "indexed": true,
          "internalType": "address",
          "name": "newOwner",
          "type": "address"
        }
      ],
      "name": "OwnershipTransferred",
      "type": "event"
    },
    {
      "anonymous": false,
      "inputs": [
        {
          "indexed": false,
          "internalType": "uint256",
          "name": "start",
          "type": "uint256"
        },
        {
          "indexed": false,
          "internalType": "uint256",
          "name": "end",
          "type": "uint256"
        }
      ],
      "name": "VotingPeriodUpdated",
      "type": "event"
    },
    {
      "inputs": [
        {
          "internalType": "string",
          "name": "_name",
          "type": "string"
        },
        {
          "internalType": "address",
          "name": "_candidateAddress",
          "type": "address"
        }
      ],
      "name": "addCandidate",
      "outputs": [],
      "stateMutability": "nonpayable",
      "type": "function"
    },
    {
      "inputs": [
        {
          "internalType": "uint256",
          "name": "",
          "type": "uint256"
        }
      ],
      "name": "candidateList",
      "outputs": [
        {
          "internalType": "uint256",
          "name": "id",
          "type": "uint256"
        },
        {
          "internalType": "address",
          "name": "candidateAddress",
          "type": "address"
        },
        {
          "internalType": "string",
          "name": "name",
          "type": "string"
        },
        {
          "internalType": "uint256",
          "name": "totalVotes",
          "type": "uint256"
        },
        {
          "internalType": "enum Admin.State",
          "name": "state",
          "type": "uint8"
        }
      ],
      "stateMutability": "view",
      "type": "function"
    },
    {
      "inputs": [
        {
          "internalType": "uint256",
          "name": "_candidateId",
          "type": "uint256"
        }
      ],
      "name": "deactivateCandidate",
      "outputs": [],
      "stateMutability": "nonpayable",
      "type": "function"
    },
    {
      "inputs": [],
      "name": "findBestCandidate",
      "outputs": [
        {
          "internalType": "string",
          "name": "name",
          "type": "string"
        },
        {
          "internalType": "address",
          "name": "candidateAddress",
          "type": "address"
        },
        {
          "internalType": "uint256",
          "name": "finalVotes",
          "type": "uint256"
        }
      ],
      "stateMutability": "view",
      "type": "function"
    },
    {
      "inputs": [],
      "name": "getAllCandidates",
      "outputs": [
        {
          "internalType": "uint256[]",
          "name": "",
          "type": "uint256[]"
        }
      ],
      "stateMutability": "view",
      "type": "function"
    },
    {
      "inputs": [
        {
          "internalType": "uint256",
          "name": "_candidateId",
          "type": "uint256"
        }
      ],
      "name": "getCandidateDetails",
      "outputs": [
        {
          "internalType": "uint256",
          "name": "id",
          "type": "uint256"
        },
        {
          "internalType": "address",
          "name": "candidateAddress",
          "type": "address"
        },
        {
          "internalType": "string",
          "name": "name",
          "type": "string"
        },
        {
          "internalType": "uint256",
          "name": "votesCount",
          "type": "uint256"
        },
        {
          "internalType": "enum Admin.State",
          "name": "state",
          "type": "uint8"
        }
      ],
      "stateMutability": "view",
      "type": "function"
    },
    {
      "inputs": [
        {
          "internalType": "uint256",
          "name": "",
          "type": "uint256"
        }
      ],
      "name": "idToCandidate",
      "outputs": [
        {
          "internalType": "uint256",
          "name": "id",
          "type": "uint256"
        },
        {
          "internalType": "address",
          "name": "candidateAddress",
          "type": "address"
        },
        {
          "internalType": "string",
          "name": "name",
          "type": "string"
        },
        {
          "internalType": "uint256",
          "name": "totalVotes",
          "type": "uint256"
        },
        {
          "internalType": "enum Admin.State",
          "name": "state",
          "type": "uint8"
        }
      ],
      "stateMutability": "view",
      "type": "function"
    },
    {
      "inputs": [
        {
          "internalType": "uint256",
          "name": "_id",
          "type": "uint256"
        }
      ],
      "name": "increaseCandidateVotes",
      "outputs": [
        {
          "internalType": "uint256",
          "name": "",
          "type": "uint256"
        }
      ],
      "stateMutability": "nonpayable",
      "type": "function"
    },
    {
      "inputs": [],
      "name": "nextCandidateId",
      "outputs": [
        {
          "internalType": "uint256",
          "name": "",
          "type": "uint256"
        }
      ],
      "stateMutability": "view",
      "type": "function"
    },
    {
      "inputs": [],
      "name": "owner",
      "outputs": [
        {
          "internalType": "address",
          "name": "",
          "type": "address"
        }
      ],
      "stateMutability": "view",
      "type": "function"
    },
    {
      "inputs": [],
      "name": "renounceOwnership",
      "outputs": [],
      "stateMutability": "nonpayable",
      "type": "function"
    },
    {
      "inputs": [
        {
          "internalType": "address",
          "name": "newOwner",
          "type": "address"
        }
      ],
      "name": "transferOwnership",
      "outputs": [],
      "stateMutability": "nonpayable",
      "type": "function"
    },
    {
      "inputs": [
        {
          "internalType": "uint256",
          "name": "_start",
          "type": "uint256"
        },
        {
          "internalType": "uint256",
          "name": "_end",
          "type": "uint256"
        }
      ],
      "name": "updateVotingPeriod",
      "outputs": [],
      "stateMutability": "nonpayable",
      "type": "function"
    },
    {
      "inputs": [
        {
          "internalType": "uint256",
          "name": "_candidateId",
          "type": "uint256"
        }
      ],
      "name": "verifyCandidateEligibility",
      "outputs": [
        {
          "internalType": "bool",
          "name": "",
          "type": "bool"
        }
      ],
      "stateMutability": "view",
      "type": "function"
    },
    {
      "inputs": [],
      "name": "votingEnd",
      "outputs": [
        {
          "internalType": "uint256",
          "name": "",
          "type": "uint256"
        }
      ],
      "stateMutability": "view",
      "type": "function"
    },
    {
      "inputs": [],
      "name": "votingStart",
      "outputs": [
        {
          "internalType": "uint256",
          "name": "",
          "type": "uint256"
        }
      ],
      "stateMutability": "view",
      "type": "function"
    }
  ],
  "bytecode": "0x60806040523480156200001157600080fd5b5060405162002a1d38038062002a1d83398181016040528101906200003791906200064c565b82600073ffffffffffffffffffffffffffffffffffffffff168173ffffffffffffffffffffffffffffffffffffffff1603620000ad5760006040517f1e4fbdf7000000000000000000000000000000000000000000000000000000008152600401620000a49190620006d8565b60405180910390fd5b620000be816200039060201b60201c565b50600073ffffffffffffffffffffffffffffffffffffffff168373ffffffffffffffffffffffffffffffffffffffff1603620001345760006040517f1e4fbdf70000000000000000000000000000000000000000000000000000000081526004016200012b9190620006d8565b60405180910390fd5b600160048190555060006040518060a0016040528060045481526020018373ffffffffffffffffffffffffffffffffffffffff1681526020018481526020016000815260200160006001811115620001915762000190620006f5565b5b8152509050806003600060045481526020019081526020016000206000820151816000015560208201518160010160006101000a81548173ffffffffffffffffffffffffffffffffffffffff021916908373ffffffffffffffffffffffffffffffffffffffff16021790555060408201518160020190816200021491906200096f565b506060820151816003015560808201518160040160006101000a81548160ff021916908360018111156200024d576200024c620006f5565b5b021790555090505060058190806001815401808255809150506001900390600052602060002090600502016000909190919091506000820151816000015560208201518160010160006101000a81548173ffffffffffffffffffffffffffffffffffffffff021916908373ffffffffffffffffffffffffffffffffffffffff1602179055506040820151816002019081620002e991906200096f565b506060820151816003015560808201518160040160006101000a81548160ff02191690836001811115620003225762000321620006f5565b5b021790555050507fe83b2a43e7e82d975c8a0a6d2f045153c869e111136a34d1889ab7b598e396a3816000015182604001516040516200036492919062000ab9565b60405180910390a160046000815480929190620003819062000b1c565b91905055505050505062000b69565b60008060009054906101000a900473ffffffffffffffffffffffffffffffffffffffff169050816000806101000a81548173ffffffffffffffffffffffffffffffffffffffff021916908373ffffffffffffffffffffffffffffffffffffffff1602179055508173ffffffffffffffffffffffffffffffffffffffff168173ffffffffffffffffffffffffffffffffffffffff167f8be0079c531659141344cd1fd0a4f28419497f9722a3daafe3b4186f6b6457e060405160405180910390a35050565b6000604051905090565b600080fd5b600080fd5b600073ffffffffffffffffffffffffffffffffffffffff82169050919050565b6000620004958262000468565b9050919050565b620004a78162000488565b8114620004b357600080fd5b50565b600081519050620004c7816200049c565b92915050565b600080fd5b600080fd5b6000601f19601f8301169050919050565b7f4e487b7100000000000000000000000000000000000000000000000000000000600052604160045260246000fd5b6200052282620004d7565b810181811067ffffffffffffffff82111715620005445762000543620004e8565b5b80604052505050565b60006200055962000454565b905062000567828262000517565b919050565b600067ffffffffffffffff8211156200058a5762000589620004e8565b5b6200059582620004d7565b9050602081019050919050565b60005b83811015620005c2578082015181840152602081019050620005a5565b60008484015250505050565b6000620005e5620005df846200056c565b6200054d565b905082815260208101848484011115620006045762000603620004d2565b5b62000611848285620005a2565b509392505050565b600082601f830112620006315762000630620004cd565b5b815162000643848260208601620005ce565b91505092915050565b6000806000606084860312156200066857620006676200045e565b5b60006200067886828701620004b6565b935050602084015167ffffffffffffffff8111156200069c576200069b62000463565b5b620006aa8682870162000619565b9250506040620006bd86828701620004b6565b9150509250925092565b620006d28162000488565b82525050565b6000602082019050620006ef6000830184620006c7565b92915050565b7f4e487b7100000000000000000000000000000000000000000000000000000000600052602160045260246000fd5b600081519050919050565b7f4e487b7100000000000000000000000000000000000000000000000000000000600052602260045260246000fd5b600060028204905060018216806200077757607f821691505b6020821081036200078d576200078c6200072f565b5b50919050565b60008190508160005260206000209050919050565b60006020601f8301049050919050565b600082821b905092915050565b600060088302620007f77fffffffffffffffffffffffffffffffffffffffffffffffffffffffffffffffff82620007b8565b620008038683620007b8565b95508019841693508086168417925050509392505050565b6000819050919050565b6000819050919050565b6000620008506200084a62000844846200081b565b62000825565b6200081b565b9050919050565b6000819050919050565b6200086c836200082f565b620008846200087b8262000857565b848454620007c5565b825550505050565b600090565b6200089b6200088c565b620008a881848462000861565b505050565b5b81811015620008d057620008c460008262000891565b600181019050620008ae565b5050565b601f8211156200091f57620008e98162000793565b620008f484620007a8565b8101602085101562000904578190505b6200091c6200091385620007a8565b830182620008ad565b50505b505050565b600082821c905092915050565b6000620009446000198460080262000924565b1980831691505092915050565b60006200095f838362000931565b9150826002028217905092915050565b6200097a8262000724565b67ffffffffffffffff811115620009965762000995620004e8565b5b620009a282546200075e565b620009af828285620008d4565b600060209050601f831160018114620009e75760008415620009d2578287015190505b620009de858262000951565b86555062000a4e565b601f198416620009f78662000793565b60005b8281101562000a2157848901518255600182019150602085019450602081019050620009fa565b8683101562000a41578489015162000a3d601f89168262000931565b8355505b6001600288020188555050505b505050505050565b62000a61816200081b565b82525050565b600082825260208201905092915050565b600062000a858262000724565b62000a91818562000a67565b935062000aa3818560208601620005a2565b62000aae81620004d7565b840191505092915050565b600060408201905062000ad0600083018562000a56565b818103602083015262000ae4818462000a78565b90509392505050565b7f4e487b7100000000000000000000000000000000000000000000000000000000600052601160045260246000fd5b600062000b29826200081b565b91507fffffffffffffffffffffffffffffffffffffffffffffffffffffffffffffffff820362000b5e5762000b5d62000aed565b5b600182019050919050565b611ea48062000b796000396000f3fe608060405234801561001057600080fd5b50600436106101005760003560e01c80638da5cb5b11610097578063d16ff4c811610066578063d16ff4c8146102ab578063eb47681c146102c9578063ec8f56b7146102e5578063f2fde38b1461031557610100565b80638da5cb5b1461020d57806392c1c7c61461022b57806397341d591461025b578063b13c744b1461027757610100565b806357e2ef10116100d357806357e2ef10146101915780636f8323e7146101c5578063715018a6146101e557806385a38635146101ef57610100565b8063101158af1461010557806327f9fd50146101235780632e6997fe146101575780634a2a84c514610175575b600080fd5b61010d610331565b60405161011a919061138e565b60405180910390f35b61013d600480360381019061013891906113e9565b610337565b60405161014e95949392919061155e565b60405180910390f35b61015f610379565b60405161016c9190611676565b60405180910390f35b61018f600480360381019061018a91906117f9565b610437565b005b6101ab60048036038101906101a691906113e9565b61067d565b6040516101bc95949392919061155e565b60405180910390f35b6101cd610768565b6040516101dc93929190611855565b60405180910390f35b6101ed610a83565b005b6101f7610a97565b604051610204919061138e565b60405180910390f35b610215610a9d565b6040516102229190611893565b60405180910390f35b610245600480360381019061024091906113e9565b610ac6565b60405161025291906118c9565b60405180910390f35b610275600480360381019061027091906113e9565b610b19565b005b610291600480360381019061028c91906113e9565b610c4c565b6040516102a295949392919061155e565b60405180910390f35b6102b3610d47565b6040516102c0919061138e565b60405180910390f35b6102e360048036038101906102de91906118e4565b610d4d565b005b6102ff60048036038101906102fa91906113e9565b610da0565b60405161030c919061138e565b60405180910390f35b61032f600480360381019061032a9190611924565b610e86565b005b60015481565b6000806060600080600061034a87610f0c565b905080600001518160200151826040015183606001518460800151955095509550955095505091939590929450565b6060600060058054905067ffffffffffffffff81111561039c5761039b6116a2565b5b6040519080825280602002602001820160405280156103ca5781602001602082028036833780820191505090505b50905060005b60058054905081101561042f57600581815481106103f1576103f0611951565b5b90600052602060002090600502016000015482828151811061041657610415611951565b5b60200260200101818152505080806001019150506103d0565b508091505090565b61043f6110c2565b600060046000815480929190610454906119af565b91905055905060006040518060a001604052808381526020018473ffffffffffffffffffffffffffffffffffffffff16815260200185815260200160008152602001600060018111156104aa576104a96114e7565b5b815250905080600360008481526020019081526020016000206000820151816000015560208201518160010160006101000a81548173ffffffffffffffffffffffffffffffffffffffff021916908373ffffffffffffffffffffffffffffffffffffffff16021790555060408201518160020190816105299190611c03565b506060820151816003015560808201518160040160006101000a81548160ff0219169083600181111561055f5761055e6114e7565b5b021790555090505060058190806001815401808255809150506001900390600052602060002090600502016000909190919091506000820151816000015560208201518160010160006101000a81548173ffffffffffffffffffffffffffffffffffffffff021916908373ffffffffffffffffffffffffffffffffffffffff16021790555060408201518160020190816105f99190611c03565b506060820151816003015560808201518160040160006101000a81548160ff0219169083600181111561062f5761062e6114e7565b5b021790555050507fe83b2a43e7e82d975c8a0a6d2f045153c869e111136a34d1889ab7b598e396a38160000151826040015160405161066f929190611cd5565b60405180910390a150505050565b60036020528060005260406000206000915090508060000154908060010160009054906101000a900473ffffffffffffffffffffffffffffffffffffffff16908060020180546106cc90611a26565b80601f01602080910402602001604051908101604052809291908181526020018280546106f890611a26565b80156107455780601f1061071a57610100808354040283529160200191610745565b820191906000526020600020905b81548152906001019060200180831161072857829003601f168201915b5050505050908060030154908060040160009054906101000a900460ff16905085565b6060600080600060058054905067ffffffffffffffff81111561078e5761078d6116a2565b5b6040519080825280602002602001820160405280156107c757816020015b6107b461131e565b8152602001906001900390816107ac5790505b50905060005b60058054905081101561096957600581815481106107ee576107ed611951565b5b90600052602060002090600502016040518060a0016040529081600082015481526020016001820160009054906101000a900473ffffffffffffffffffffffffffffffffffffffff1673ffffffffffffffffffffffffffffffffffffffff1673ffffffffffffffffffffffffffffffffffffffff16815260200160028201805461087790611a26565b80601f01602080910402602001604051908101604052809291908181526020018280546108a390611a26565b80156108f05780601f106108c5576101008083540402835291602001916108f0565b820191906000526020600020905b8154815290600101906020018083116108d357829003601f168201915b50505050508152602001600382015481526020016004820160009054906101000a900460ff166001811115610928576109276114e7565b5b600181111561093a576109396114e7565b5b8152505082828151811061095157610950611951565b5b602002602001018190525080806001019150506107cd565b5061097381611149565b905060005b8151811015610a425760006001811115610995576109946114e7565b5b8282815181106109a8576109a7611951565b5b60200260200101516080015160018111156109c6576109c56114e7565b5b03610a35578181815181106109de576109dd611951565b5b6020026020010151604001518282815181106109fd576109fc611951565b5b602002602001015160200151838381518110610a1c57610a1b611951565b5b6020026020010151606001519450945094505050610a7e565b8080600101915050610978565b506040517f08c379a0000000000000000000000000000000000000000000000000000000008152600401610a7590611d51565b60405180910390fd5b909192565b610a8b6110c2565b610a956000611252565b565b60025481565b60008060009054906101000a900473ffffffffffffffffffffffffffffffffffffffff16905090565b600080610ad283610337565b94505050505060006001811115610aec57610aeb6114e7565b5b816001811115610aff57610afe6114e7565b5b03610b0e576001915050610b14565b60009150505b919050565b610b216110c2565b80600081118015610b33575060045481105b610b72576040517f08c379a0000000000000000000000000000000000000000000000000000000008152600401610b6990611dbd565b60405180910390fd5b600060036000848152602001908152602001600020905060018160040160006101000a81548160ff02191690836001811115610bb157610bb06114e7565b5b021790555060016005600185610bc79190611ddd565b81548110610bd857610bd7611951565b5b906000526020600020906005020160040160006101000a81548160ff02191690836001811115610c0b57610c0a6114e7565b5b02179055507f07952e62885452aff3395e73284ce75f709da0ae6e9e559673d48926a75352ad83604051610c3f919061138e565b60405180910390a1505050565b60058181548110610c5c57600080fd5b90600052602060002090600502016000915090508060000154908060010160009054906101000a900473ffffffffffffffffffffffffffffffffffffffff1690806002018054610cab90611a26565b80601f0160208091040260200160405190810160405280929190818152602001828054610cd790611a26565b8015610d245780601f10610cf957610100808354040283529160200191610d24565b820191906000526020600020905b815481529060010190602001808311610d0757829003601f168201915b5050505050908060030154908060040160009054906101000a900460ff16905085565b60045481565b610d556110c2565b81600181905550806002819055507fffc708f072ca56e3d45ef0cb288b96cb9378f5f63e1646868bfbc9c38f4263a18282604051610d94929190611e11565b60405180910390a15050565b60008082118015610db2575060045482105b610df1576040517f08c379a0000000000000000000000000000000000000000000000000000000008152600401610de890611dbd565b60405180910390fd5b6001600360008481526020019081526020016000206003016000828254610e189190611e3a565b9250508190555060016005600184610e309190611ddd565b81548110610e4157610e40611951565b5b90600052602060002090600502016003016000828254610e619190611e3a565b9250508190555060036000838152602001908152602001600020600301549050919050565b610e8e6110c2565b600073ffffffffffffffffffffffffffffffffffffffff168173ffffffffffffffffffffffffffffffffffffffff1603610f005760006040517f1e4fbdf7000000000000000000000000000000000000000000000000000000008152600401610ef79190611893565b60405180910390fd5b610f0981611252565b50565b610f1461131e565b81600081118015610f26575060045481105b610f65576040517f08c379a0000000000000000000000000000000000000000000000000000000008152600401610f5c90611dbd565b60405180910390fd5b600360008481526020019081526020016000206040518060a0016040529081600082015481526020016001820160009054906101000a900473ffffffffffffffffffffffffffffffffffffffff1673ffffffffffffffffffffffffffffffffffffffff1673ffffffffffffffffffffffffffffffffffffffff168152602001600282018054610ff390611a26565b80601f016020809104026020016040519081016040528092919081815260200182805461101f90611a26565b801561106c5780601f106110415761010080835404028352916020019161106c565b820191906000526020600020905b81548152906001019060200180831161104f57829003601f168201915b50505050508152602001600382015481526020016004820160009054906101000a900460ff1660018111156110a4576110a36114e7565b5b60018111156110b6576110b56114e7565b5b81525050915050919050565b6110ca611316565b73ffffffffffffffffffffffffffffffffffffffff166110e8610a9d565b73ffffffffffffffffffffffffffffffffffffffff16146111475761110b611316565b6040517f118cdaa700000000000000000000000000000000000000000000000000000000815260040161113e9190611893565b60405180910390fd5b565b606060008251905060005b8181101561124857600060018261116b9190611e3a565b90505b8281101561123a5784818151811061118957611188611951565b5b6020026020010151606001518583815181106111a8576111a7611951565b5b602002602001015160600151101561122d578481815181106111cd576111cc611951565b5b60200260200101518583815181106111e8576111e7611951565b5b602002602001015186848151811061120357611202611951565b5b6020026020010187848151811061121d5761121c611951565b5b6020026020010182905282905250505b808060010191505061116e565b508080600101915050611154565b5082915050919050565b60008060009054906101000a900473ffffffffffffffffffffffffffffffffffffffff169050816000806101000a81548173ffffffffffffffffffffffffffffffffffffffff021916908373ffffffffffffffffffffffffffffffffffffffff1602179055508173ffffffffffffffffffffffffffffffffffffffff168173ffffffffffffffffffffffffffffffffffffffff167f8be0079c531659141344cd1fd0a4f28419497f9722a3daafe3b4186f6b6457e060405160405180910390a35050565b600033905090565b6040518060a0016040528060008152602001600073ffffffffffffffffffffffffffffffffffffffff16815260200160608152602001600081526020016000600181111561136f5761136e6114e7565b5b81525090565b6000819050919050565b61138881611375565b82525050565b60006020820190506113a3600083018461137f565b92915050565b6000604051905090565b600080fd5b600080fd5b6113c681611375565b81146113d157600080fd5b50565b6000813590506113e3816113bd565b92915050565b6000602082840312156113ff576113fe6113b3565b5b600061140d848285016113d4565b91505092915050565b600073ffffffffffffffffffffffffffffffffffffffff82169050919050565b600061144182611416565b9050919050565b61145181611436565b82525050565b600081519050919050565b600082825260208201905092915050565b60005b83811015611491578082015181840152602081019050611476565b60008484015250505050565b6000601f19601f8301169050919050565b60006114b982611457565b6114c38185611462565b93506114d3818560208601611473565b6114dc8161149d565b840191505092915050565b7f4e487b7100000000000000000000000000000000000000000000000000000000600052602160045260246000fd5b60028110611527576115266114e7565b5b50565b600081905061153882611516565b919050565b60006115488261152a565b9050919050565b6115588161153d565b82525050565b600060a082019050611573600083018861137f565b6115806020830187611448565b818103604083015261159281866114ae565b90506115a1606083018561137f565b6115ae608083018461154f565b9695505050505050565b600081519050919050565b600082825260208201905092915050565b6000819050602082019050919050565b6115ed81611375565b82525050565b60006115ff83836115e4565b60208301905092915050565b6000602082019050919050565b6000611623826115b8565b61162d81856115c3565b9350611638836115d4565b8060005b8381101561166957815161165088826115f3565b975061165b8361160b565b92505060018101905061163c565b5085935050505092915050565b600060208201905081810360008301526116908184611618565b905092915050565b600080fd5b600080fd5b7f4e487b7100000000000000000000000000000000000000000000000000000000600052604160045260246000fd5b6116da8261149d565b810181811067ffffffffffffffff821117156116f9576116f86116a2565b5b80604052505050565b600061170c6113a9565b905061171882826116d1565b919050565b600067ffffffffffffffff821115611738576117376116a2565b5b6117418261149d565b9050602081019050919050565b82818337600083830152505050565b600061177061176b8461171d565b611702565b90508281526020810184848401111561178c5761178b61169d565b5b61179784828561174e565b509392505050565b600082601f8301126117b4576117b3611698565b5b81356117c484826020860161175d565b91505092915050565b6117d681611436565b81146117e157600080fd5b50565b6000813590506117f3816117cd565b92915050565b600080604083850312156118105761180f6113b3565b5b600083013567ffffffffffffffff81111561182e5761182d6113b8565b5b61183a8582860161179f565b925050602061184b858286016117e4565b9150509250929050565b6000606082019050818103600083015261186f81866114ae565b905061187e6020830185611448565b61188b604083018461137f565b949350505050565b60006020820190506118a86000830184611448565b92915050565b60008115159050919050565b6118c3816118ae565b82525050565b60006020820190506118de60008301846118ba565b92915050565b600080604083850312156118fb576118fa6113b3565b5b6000611909858286016113d4565b925050602061191a858286016113d4565b9150509250929050565b60006020828403121561193a576119396113b3565b5b6000611948848285016117e4565b91505092915050565b7f4e487b7100000000000000000000000000000000000000000000000000000000600052603260045260246000fd5b7f4e487b7100000000000000000000000000000000000000000000000000000000600052601160045260246000fd5b60006119ba82611375565b91507fffffffffffffffffffffffffffffffffffffffffffffffffffffffffffffffff82036119ec576119eb611980565b5b600182019050919050565b7f4e487b7100000000000000000000000000000000000000000000000000000000600052602260045260246000fd5b60006002820490506001821680611a3e57607f821691505b602082108103611a5157611a506119f7565b5b50919050565b60008190508160005260206000209050919050565b60006020601f8301049050919050565b600082821b905092915050565b600060088302611ab97fffffffffffffffffffffffffffffffffffffffffffffffffffffffffffffffff82611a7c565b611ac38683611a7c565b95508019841693508086168417925050509392505050565b6000819050919050565b6000611b00611afb611af684611375565b611adb565b611375565b9050919050565b6000819050919050565b611b1a83611ae5565b611b2e611b2682611b07565b848454611a89565b825550505050565b600090565b611b43611b36565b611b4e818484611b11565b505050565b5b81811015611b7257611b67600082611b3b565b600181019050611b54565b5050565b601f821115611bb757611b8881611a57565b611b9184611a6c565b81016020851015611ba0578190505b611bb4611bac85611a6c565b830182611b53565b50505b505050565b600082821c905092915050565b6000611bda60001984600802611bbc565b1980831691505092915050565b6000611bf38383611bc9565b9150826002028217905092915050565b611c0c82611457565b67ffffffffffffffff811115611c2557611c246116a2565b5b611c2f8254611a26565b611c3a828285611b76565b600060209050601f831160018114611c6d5760008415611c5b578287015190505b611c658582611be7565b865550611ccd565b601f198416611c7b86611a57565b60005b82811015611ca357848901518255600182019150602085019450602081019050611c7e565b86831015611cc05784890151611cbc601f891682611bc9565b8355505b6001600288020188555050505b505050505050565b6000604082019050611cea600083018561137f565b8181036020830152611cfc81846114ae565b90509392505050565b7f4e6f20656c696769626c652077696e6e657220666f756e642e00000000000000600082015250565b6000611d3b601983611462565b9150611d4682611d05565b602082019050919050565b60006020820190508181036000830152611d6a81611d2e565b9050919050565b7f43616e646964617465204944206f7574206f662072616e676500000000000000600082015250565b6000611da7601983611462565b9150611db282611d71565b602082019050919050565b60006020820190508181036000830152611dd681611d9a565b9050919050565b6000611de882611375565b9150611df383611375565b9250828203905081811115611e0b57611e0a611980565b5b92915050565b6000604082019050611e26600083018561137f565b611e33602083018461137f565b9392505050565b6000611e4582611375565b9150611e5083611375565b9250828201905080821115611e6857611e67611980565b5b9291505056fea26469706673582212203f0de87e9acef94d50aa2d660759d8260a25891452e363a04760427d7430107464736f6c63430008180033",
  "linkReferences": {},
  "deployedLinkReferences": {}
}